:020000002F28A7
:100008007E1480318B1D09280A2813280B1C0D2803
:100018000E2813288231C82280310B102D28210088
:10002800911E1728182821282000911E1C281D28F9
:1000380021288031412080312D288B1E2428252815
:100048002D280B1D282829282D2882318D22803122
:100058002D287E1009003028F801F901FA01FB016A
:10006800FC012000A001A101A201A301A401A50196
:10007800A601A7017E1020004B2923009D1C4528BE
:10008800462848281D121D161908F70020002308C5
:10009800031D4F285028672802307706031D55286E
:1000A80056286328A301A30A79087A3E86008701A7
:1000B800023081000130F5007508F907BC28A3015A
:1000C800A201F901BC2879087A3E860087017708E1
:1000D80081000130F5007508F90703307906031D22
:1000E80076287728BC2811307B0603197C287D28C0
:1000F800B92812307B06031982288328B9281330BF
:100108007B06031988288928B92815307B06031926
:100118008E288F28B92821307B0603199428952822
:10012800B92822307B0603199A289B28B92823303E
:100138007B060319A028A128B928A1307B0603193A
:10014800A628A728B928A2307B060319AC28AD2811
:10015800B928A3307B060319B228B328B928A430DC
:100168007B06031DB828B9286328A201A20AF90151
:1001780022080319C028C1284A29A501A301A20100
:100188007D03031DC828C9282129FF281230A6008D
:1001980046291330A60046291230A6003C30B0008C
:1001A8000530AF000330AE0046297C08031DDD286A
:1001B800DE28E028A70146297C03031DE428E5285A
:1001C800E828A230A700462902307C06031DED2846
:1001D800EE284629A330A70046297C08AE00462908
:1001E8007C08AF0046297C08031DFB28FC2846290B
:1001F800A430FD0046297B08F500F6017608003A90
:100208000319072946297508113A03194629033A9B
:100218000319CA28013A0319CD28063A0319D02828
:10022800343A0319D928033A0319F128013A031972
:10023800F428873A0319F728462902307D06031D5A
:100248002629272946297C08031D2B292C294629DC
:100258003029A130A70046297B08F500F601760869
:10026800003A0319382946297508A13A03192D2996
:10027800033A0319E528013A0319EE28073A031946
:10028800FC2846297A3082316C228031080082317C
:10029800D82281318B170B173C302000B000053075
:1002A800AF000330AE00A501A40183312B238131B7
:1002B8008231FB22813183312823813109302000AA
:1002C800AC001C30890B6629AC0B66290000833111
:1002D800042381312000A70111302000AC003A30FE
:1002E800890B7429AC0B74290000833125238131D3
:1002F8007D03031D80298129A0298C293008250226
:10030800031C87298829082A823113228131082A67
:1003180020002608AC00AD012D08003A03199529E4
:10032800082A2C08003A0319082A123A0319082A3D
:10033800013A03198229082A02307D06031DA529DE
:10034800A629012ADD298231F2228131003A031DD2
:10035800AE29AF29C42983312E23813120002E08EC
:10036800823142228131A13020002706031DBD2998
:10037800BE29F429A330A70083312B238131F42926
:10038800A2302000A700F4298231F2228131003AFC
:10039800031DCF29D029F42983312E238131F42953
:1003A8008231F2228131003A0319DB29DC29F42950
:1003B800C02920002708AC00AD012D08003A031918
:1003C800E629F4292C08003A0319F429A13A03195B
:1003D800A729033A0319C829013A0319D429F4298A
:1003E80020002F082402031CFA29FB29082A82313D
:1003F800FB2281312000A401082AA4307D06031DB8
:10040800062A072A082A882911302000AC003A3029
:10041800890B0C2AAC0B0C2A00007C292F2883316D
:100428002B23823183312823823111302000A80008
:100438003A30890B1D2AA80B1D2A00008231FB22A5
:10044800823131302000A800B230890B292AA80B4C
:10045800292A000083310423823111302000A800AA
:100468003A30890B352AA80B352A00008331252319
:1004780082312000A601A501A40108002000AB00DC
:100488002B35A9002B08031D4A2A4B2A552A52301E
:100498002000A8002930890B4F2AA80B4F2A0032C8
:1004A8006B2AAA01652A52302000A8002930890B3E
:1004B8005B2AA80B5B2A003201302000A80028081C
:1004C800AA0729082A02031C6A2A6B2A572A080045
:1004D800F200F301F401F301F40173087207F1006B
:1004E80071088600870101088331162382310130A3
:1004F800F3070030F43D7408803AF100803071024F
:10050800031D882A03307302031C8B2A8C2A712A44
:1005180008000B117808200095000130A007003072
:10052800A13D00302102023003192002031C9D2A3C
:100538009E2AA42A83310D2382312000A001A10123
:10054800080022008C0123008C0124008C01383023
:1005580021008C009517843022009D0027009315F8
:10056800921591118B150800210091121112083073
:1005780023009F0090309D0024309E000C309B008B
:100588009C012100911608002700931DCC2ACD2A32
:10059800D72A931102307D06031DD32AD42AD72ADD
:1005A800A1302000A70008008231A52282318331C2
:1005B8001F2382318231E52282318231B822823191
:1005C800080021001508C039173895000B302000A5
:1005D80095000B30F8000B118B16080020008C1CBE
:1005E800F62AF72AF92A0130FA2A003008002000F2
:1005F8000C10FD01FD0A2930890B002B0032080080
:1006080020000C140230FD002930890B092B003220
:10061800080020002508013EA5000130F000700800
:10062800A4070800F000700823009A009E1C1D2BE8
:100638001E2B1A2B08003830210099009A019801C6
:10064800080020000C15080020000C1108002000EC
:0A0658008C10080020008C1408002C
:020000040001F9
:04000E00A43FFF1EEE
:00000001FF
