:020000002F28A7
:100008007E1480318B1D09280A2813280B1C0D2803
:100018000E2813288331152380310B102D28210039
:10002800911E1728182821282000911E1C281D28F9
:1000380021288031412080312D288B1E2428252815
:100048002D280B1D282829282D288231DA228031D5
:100058002D287E1009003028F801F901FA01FB016A
:10006800FC012000A001A101A201A301A401A50196
:10007800A601A7017E1020005F2923009D1C4528AA
:10008800462848281D121D161908F70020002308C5
:10009800031D4F285028672802307706031D55286E
:1000A80056286328A301A30A79087A3E86008701A7
:1000B800023081000130F5007508F907CA28A3014C
:1000C800A201F901CA2879087A3E860087017708D3
:1000D80081000130F5007508F90703307906031D22
:1000E80076287728CA2811307B0603197C287D28B2
:1000F800BF2812307B06031982288328BF281330B3
:100108007B06031988288928BF2814307B06031921
:100118008E288F28BF2815307B0603199428952828
:10012800BF2821307B0603199A289B28BF28223034
:100138007B060319A028A128BF2823307B060319B2
:10014800A628A728BF28A1307B060319AC28AD280C
:10015800BF28A2307B060319B228B328BF28A330D2
:100168007B060319B828B928BF28A4307B06031DCD
:10017800BE28BF286328A201A20AF90114307B0611
:10018800031DC728C828CA287C08B20022080319FA
:10019800CE28CF285E29A501A301A2017D03031D56
:1001A800D628D728352910291230A6005A29133005
:1001B800A6005A297C08B2005A291230A6003C3001
:1001C800B2000530B1000330B0005A297C08031D85
:1001D800EE28EF28F128A7015A297C03031DF528EA
:1001E800F628F928A230A7005A2902307C06031DF8
:1001F800FE28FF285A29A330A7005A297C08B000F6
:100208005A297C08B1005A297C08031D0C290D299C
:100218005A29A430FD005A297B08F500F601760812
:10022800003A031918295A297508113A03195A2945
:10023800033A0319D828013A0319DB28073A0319A6
:10024800DE28013A0319E128343A0319EA28033A67
:1002580003190229013A03190529873A03190829BC
:100268005A2902307D06031D3A293B295A297C0860
:10027800031D3F2940295A294429A130A7005A299A
:100288007B08F500F6017608003A03194C295A292B
:100298007508A13A03194129033A0319F628013AC6
:1002A8000319FF28073A03190D295A297A30823190
:1002B800B922803108008331322381318B170B1723
:1002C8003C302000B2000530B1000330B000A50179
:1002D800A40183318F23813183315F2381318331BD
:1002E8008C23813109302000AC001C30890B7A291D
:1002F800AC0B7A2900008331682381312000A701E3
:1003080011302000AC003A30890B8829AC0B8829C1
:1003180000008331892381317D03031D94299529A8
:10032800F529E129AE01AF018331252381310B3055
:100338002000AC00B530890B9F29AC0B9F290032F7
:100348001330200026060319AA29AB29B129123037
:100358002606031DB029B129B329A701CF290230E8
:100368002E062F04031DB929BA29BD298331682314
:10037800813101302000AE070030AF3D2F08803AB0
:10038800AC0080302C02031DCB2903302E02031C45
:10039800CE29CF299829200032082502031CD52907
:1003A800D6295E2A823160228131902932082502BD
:1003B800031CDF29E0295E2AD62920002608AC0084
:1003C800AD012D08003A0319EA2990292C08003AB2
:1003D80003199629123A03195E2A013A0319DA29F0
:1003E800902902307D06031DFA29FB29572A322A53
:1003F800833156238131003A031D032A042A192A1E
:100408008331922381312000300882318F2281315B
:10041800A13020002706031D122A132A492AA330D7
:10042800A70083318F238131492AA2302000A700F9
:10043800492A833156238131003A031D242A252A6B
:10044800492A833192238131492A833156238131C4
:10045800003A0319302A312A492A152A2000270888
:10046800AC00AD012D08003A03193B2A492A2C0893
:10047800003A0319492AA13A0319FC29033A031936
:100488001D2A013A0319292A492A20003108240281
:10049800031C4F2A502A902983315F238131200081
:1004A800A601A4019029A4307D06031D5C2A5D2ABB
:1004B8009029D62990292F2883318F23823183319F
:1004C8008C23823111302000A8003A30890B6A2A27
:1004D800A80B6A2A000083315F2382313130200063
:1004E800A800B230890B762AA80B762A000083313F
:1004F8006823823111302000A8003A30890B822A03
:10050800A80B822A00008331892382312000A601AA
:10051800A501A40108002000AB002B35A9002B0879
:10052800031D972A982AA22A52302000A8002930B1
:10053800890B9C2AA80B9C2A0032B82AAA01B22A45
:1005480052302000A8002930890BA82AA80BA82A15
:10055800003201302000A8002808AA0729082A022A
:10056800031CB72AB82AA42A0800F200F301F401F0
:10057800F301F40173087207F1007108860087011E
:10058800010883317A2382310130F3070030F43DCA
:100598007408803AF10080307102031DD52A0330B7
:1005A8007302031CD82AD92ABE2A08000B1178081E
:1005B800200095000130A0070030A13D0030210245
:1005C800023003192002031CEA2AEB2AF12A83319C
:1005D800712382312000A001A101080022008C01B2
:1005E80023008C0124008C01383021008C009517E1
:1005F800843022009D0027009315921591118B15C8
:100608000800210091121112083023009F00903039
:100618009D0024309E000C309B009C012100911607
:1006280008002700931D192B1A2B242B9311023035
:100638007D06031D202B212B242BA1302000A70091
:100648000800023083314C238331303083314C230E
:100658008331003083314C23833108008231F22208
:10066800833183318323833183313F238331833142
:1006780005238331080021001508C0391738950073
:100688000B30200095000B30F8000B118B1608007A
:100698002000A800280823009A009E1C542B552BE4
:1006A800512B080020008C1C5A2B5B2B5D2B013032
:1006B8005E2B0030080020000C10FD01FD0A2930D7
:1006C800890B642B0032080020000C140230FD0056
:1006D8002930890B6D2B0032080020002508013EC7
:1006E800A5000130F0007008A4070800F0007008A9
:1006F80023009A009E1C812B822B7E2B0800383009
:10070800210099009A019801080020000C150800A2
:1007180020000C11080020008C10080020008C1408
:020728000800C7
:020000040001F9
:04000E00A43FFF1EEE
:00000001FF
