:020000002F28A7
:100008007E1480318B1D09280A2813280B1C0D2803
:100018000E2813288331032380310B102D2821004B
:10002800911E1728182821282000911E1C281D28F9
:1000380021288031412080312D288B1E2428252815
:100048002D280B1D282829282D288231C8228031E7
:100058002D287E1009003028F801F901FA01FB016A
:10006800FC012000A001A101A201A301A401A50196
:10007800A601A7017E102000552923009D1C4528B4
:10008800462848281D121D161908F70020002308C5
:10009800031D4F285028672802307706031D55286E
:1000A80056286328A301A30A79087A3E86008701A7
:1000B800023081000130F5007508F907C628A30150
:1000C800A201F901C62879087A3E860087017708D7
:1000D80081000130F5007508F90703307906031D22
:1000E80076287728C62811307B0603197C287D28B6
:1000F800B92812307B06031982288328B9281330BF
:100108007B06031988288928B92815307B06031926
:100118008E288F28B92821307B0603199428952822
:10012800B92822307B0603199A289B28B92823303E
:100138007B060319A028A128B928A1307B0603193A
:10014800A628A728B928A2307B060319AC28AD2811
:10015800B928A3307B060319B228B328B928A430DC
:100168007B06031DB828B9286328A201A20AF90151
:1001780013307B06031DC128C228C6281330A600E9
:100188001330A60022080319CA28CB285429A50130
:10019800A301A2017D03031DD228D3282B290929F5
:1001A8001230A60050291330A60050291230A6009C
:1001B8003C30B2000530B1000330B00050297C0853
:1001C800031DE728E828EA28A70150297C03031D16
:1001D800EE28EF28F228A230A700502902307C062A
:1001E800031DF728F8285029A330A70050297C08B8
:1001F800B00050297C08B10050297C08031D05294E
:1002080006295029A430FD0050297B08F500F60185
:100218007608003A0319112950297508113A03196B
:100228005029033A0319D428013A0319D728063A62
:100238000319DA28343A0319E328033A0319FB2887
:10024800013A0319FE28873A031901295029023077
:100258007D06031D3029312950297C08031D3529C5
:10026800362950293A29A130A70050297B08F500E2
:10027800F6017608003A0319422950297508A13A6F
:1002880003193729033A0319EF28013A0319F82803
:10029800073A0319062950297A308231A72280317A
:1002A80008008331202381318B170B173C30200045
:1002B800B2000530B1000330B000A501A4018331BC
:1002C8007D23813183314D23813183317A238131FB
:1002D80009302000AC001C30890B7029AC0B702948
:1002E80000008331562381312000A70111302000FE
:1002F800AC003A30890B7E29AC0B7E290000833193
:10030800772381317D03031D8A298B29E429D0298C
:10031800AE01AF018331132381310B302000AC00D3
:10032800B530890B9529AC0B952900321330200084
:1003380026060319A029A129A72912302606031D7C
:10034800A629A729A929A701862902302E062F0444
:10035800031DAF29B029B3298331562381310130D8
:100368002000AE070030AF3D2F08803AAC00803047
:100378002C02031DC12903302E02031CC429C529E0
:100388008E29862932082502031CCB29CC294C2A20
:1003980082314E228131862920002608AC00AD0129
:1003A8002D08003A0319D92986292C08003A03197F
:1003B8008C29123A03194C2A013A0319C6298629AD
:1003C80002307D06031DE929EA29452A212A8331BD
:1003D80044238131003A031DF229F329082A833185
:1003E800802381312000300882317D228131A13083
:1003F80020002706031D012A022A382AA330A70055
:1004080083317D238131382AA2302000A700382A81
:10041800833144238131003A031D132A142A382AD0
:10042800833180238131382A833144238131003A52
:1004380003191F2A202A382A042A20002708AC007A
:10044800AD012D08003A03192A2A382A2C08003A47
:100458000319382AA13A0319EB29033A03190C2A7C
:10046800013A0319182A382A200031082402031CEB
:100478003E2A3F2A862983314D2381312000A40159
:100488008629A4307D06031D4A2A4B2A8629CC29B1
:1004980086292F2883317D23823183317A23823143
:1004A80011302000A8003A30890B582AA80B582A86
:1004B800000083314D23823131302000A800B23052
:1004C800890B642AA80B642A0000833156238231E1
:1004D80011302000A8003A30890B702AA80B702A26
:1004E80000008331772382312000A601A501A401F1
:1004F80008002000AB002B35A9002B08031D852A16
:10050800862A902A52302000A8002930890B8A2A8E
:10051800A80B8A2A0032A62AAA01A02A5230200053
:10052800A8002930890B962AA80B962A0032013098
:100538002000A8002808AA0729082A02031CA52ABF
:10054800A62A922A0800F200F301F401F301F4014B
:1005580073087207F100710886008701010883316A
:10056800682382310130F3070030F43D7408803A83
:10057800F10080307102031DC32A03307302031C8B
:10058800C62AC72AAC2A08000B1178082000950053
:100598000130A0070030A13D0030210202300319CC
:1005A8002002031CD82AD92ADF2A83315F2382310B
:1005B8002000A001A101080022008C0123008C0169
:1005C80024008C01383021008C00951784302200DB
:1005D8009D0027009315921591118B150800210095
:1005E80091121112083023009F0090309D00243092
:1005F8009E000C309B009C012100911608002700EA
:10060800931D072B082B122B931102307D06031D17
:100618000E2B0F2B122BA1302000A7000800023050
:1006280083313A238331303083313A2383310030A8
:1006380083313A23833108008231E02283318331C8
:100648007123833183312D2383318231F322833126
:10065800080021001508C039173895000B30200014
:1006680095000B30F8000B118B1608002000A8002D
:10067800280823009A009E1C422B432B3F2B08007E
:1006880020008C1C482B492B4B2B01304C2B003065
:10069800080020000C10FD01FD0A2930890B522B9F
:1006A8000032080020000C140230FD002930890BAC
:1006B8005B2B0032080020002508013EA500013010
:1006C800F0007008A4070800F000700823009A00E2
:1006D8009E1C6F2B702B6C2B080038302100990062
:1006E8009A019801080020000C15080020000C1140
:0E06F800080020008C10080020008C14080060
:020000040001F9
:04000E00A43FFF1EEE
:00000001FF
