:020000002F28A7
:100008007E1480318B1D09280A2813280B1C0D2803
:100018000E2813288331012380310B102D2821004D
:10002800911E1728182821282000911E1C281D28F9
:1000380021288031412080312D288B1E2428252815
:100048002D280B1D282829282D288231C6228031E9
:100058002D287E1009003028F801F901FA01FB016A
:10006800FC012000A001A101A201A301A401A50196
:10007800A601A7017E1020004B2923009D1C4528BE
:10008800462848281D121D161908F70020002308C5
:10009800031D4F285028672802307706031D55286E
:1000A80056286328A301A30A79087A3E86008701A7
:1000B800023081000130F5007508F907BC28A3015A
:1000C800A201F901BC2879087A3E860087017708E1
:1000D80081000130F5007508F90703307906031D22
:1000E80076287728BC2811307B0603197C287D28C0
:1000F800B92812307B06031982288328B9281330BF
:100108007B06031988288928B92815307B06031926
:100118008E288F28B92821307B0603199428952822
:10012800B92822307B0603199A289B28B92823303E
:100138007B060319A028A128B928A1307B0603193A
:10014800A628A728B928A2307B060319AC28AD2811
:10015800B928A3307B060319B228B328B928A430DC
:100168007B06031DB828B9286328A201A20AF90151
:1001780022080319C028C1284A29A501A301A20100
:100188007D03031DC828C9282129FF281230A6008D
:1001980046291330A60046291230A6003C30B2008A
:1001A8000530B1000330B00046297C08031DDD2866
:1001B800DE28E028A70146297C03031DE428E5285A
:1001C800E828A230A700462902307C06031DED2846
:1001D800EE284629A330A70046297C08B000462906
:1001E8007C08B10046297C08031DFB28FC28462909
:1001F800A430FD0046297B08F500F6017608003A90
:100208000319072946297508113A03194629033A9B
:100218000319CA28013A0319CD28063A0319D02828
:10022800343A0319D928033A0319F128013A031972
:10023800F428873A0319F728462902307D06031D5A
:100248002629272946297C08031D2B292C294629DC
:100258003029A130A70046297B08F500F601760869
:10026800003A0319382946297508A13A03192D2996
:10027800033A0319E528013A0319EE28073A031946
:10028800FC2846297A308231A52280310800833142
:100298001E2381318B170B173C302000B20005302C
:1002A800B1000330B000A501A40183317B23813163
:1002B80083314B2381318331782381310930200008
:1002C800AC001C30890B6629AC0B66290000833111
:1002D800542381312000A70111302000AC003A30AE
:1002E800890B7429AC0B7429000083317523813183
:1002F8007D03031D80298129E129CD29AE01AF01A4
:100308008331112381310B302000AC00B530890BCB
:100318008B29AC0B8B2900321330200026060319D9
:10032800962997299D2912302606031D9C299D2967
:100338009F29A701BB2902302E062F04031DA529DA
:10034800A629A92983315423813101302000AE0721
:100358000030AF3D2F08803AAC0080302C02031DDE
:10036800B72903302E02031CBA29BB29842920008F
:1003780032082502031CC129C2294A2A82314C228B
:1003880081317C2932082502031CCB29CC294A2A31
:10039800C22920002608AC00AD012D08003A031937
:1003A800D6297C292C08003A03198229123A031904
:1003B8004A2A013A0319C6297C2902307D06031D01
:1003C800E629E729432A1E2A833142238131003A4C
:1003D800031DEF29F029052A83317E23813120006E
:1003E800300882317B228131A13020002706031D8D
:1003F800FE29FF29352AA330A70083317B238131C9
:10040800352AA2302000A700352A833142238131C2
:10041800003A031D102A112A352A83317E2381319F
:10042800352A833142238131003A03191C2A1D2AB7
:10043800352A012A20002708AC00AD012D08003A12
:100448000319272A352A2C08003A0319352AA13A14
:100458000319E829033A0319092A013A0319152A45
:10046800352A200031082402031C3B2A3C2A7C2917
:1004780083314B2381312000A601A4017C29A430BB
:100488007D06031D482A492A7C29C2297C292F2850
:1004980083317B23823183317823823111302000EC
:1004A800A8003A30890B562AA80B562A0000833137
:1004B8004B23823131302000A800B230890B622AE8
:1004C800A80B622A000083315423823111302000A6
:1004D800A8003A30890B6E2AA80B6E2A00008331D7
:1004E800752382312000A601A501A401080020007F
:1004F800AB002B35A9002B08031D832A842A8E2ADA
:1005080052302000A8002930890B882AA80B882A95
:100518000032A42AAA019E2A52302000A8002930BD
:10052800890B942AA80B942A003201302000A800D5
:100538002808AA0729082A02031CA32AA42A902A01
:100548000800F200F301F401F301F40173087207E3
:10055800F100710886008701010883316623823122
:100568000130F3070030F43D7408803AF100803020
:100578007102031DC12A03307302031CC42AC52A51
:10058800AA2A08000B117808200095000130A0075E
:100598000030A13D00302102023003192002031C63
:1005A800D62AD72ADD2A83315D2382312000A00193
:1005B800A101080022008C0123008C0124008C0179
:1005C800383021008C009517843022009D002700C8
:1005D8009315921591118B15080021009112111293
:1005E800083023009F0090309D0024309E000C307E
:1005F8009B009C012100911608002700931D052BE4
:10060800062B102B931102307D06031D0C2B0D2B8E
:10061800102BA1302000A7000800023083313823B6
:1006280083313030833138238331003083313823AC
:10063800833108008231DE22833183316F23833195
:1006480083312B2383318231F12283310800210049
:100658001508C039173895000B30200095000B306D
:10066800F8000B118B1608002000A80028082300AA
:100678009A009E1C402B412B3D2B080020008C1C0F
:10068800462B472B492B01304A2B0030080020000D
:100698000C10FD01FD0A2930890B502B003208008F
:1006A80020000C140230FD002930890B592B003230
:1006B800080020002508013EA5000130F000700860
:1006C800A4070800F000700823009A009E1C6D2BF8
:1006D8006E2B6A2B08003830210099009A01980186
:1006E800080020000C15080020000C11080020004C
:0A06F8008C10080020008C1408008C
:020000040001F9
:04000E00A43FFF1EEE
:00000001FF
